{
  "contractName": "PoExistence",
  "abi": [
    {
      "constant": true,
      "inputs": [
        {
          "name": "",
          "type": "address"
        }
      ],
      "name": "users_datahash",
      "outputs": [
        {
          "name": "",
          "type": "bytes32"
        }
      ],
      "payable": false,
      "stateMutability": "view",
      "type": "function"
    },
    {
      "constant": true,
      "inputs": [
        {
          "name": "",
          "type": "bytes32"
        }
      ],
      "name": "datahash_metadata",
      "outputs": [
        {
          "name": "",
          "type": "uint256"
        }
      ],
      "payable": false,
      "stateMutability": "view",
      "type": "function"
    },
    {
      "constant": true,
      "inputs": [
        {
          "name": "",
          "type": "bytes32"
        }
      ],
      "name": "datahash_to_user",
      "outputs": [
        {
          "name": "",
          "type": "address"
        }
      ],
      "payable": false,
      "stateMutability": "view",
      "type": "function"
    },
    {
      "anonymous": false,
      "inputs": [
        {
          "indexed": false,
          "name": "datahash",
          "type": "bytes32"
        },
        {
          "indexed": false,
          "name": "blockNumber",
          "type": "uint256"
        }
      ],
      "name": "LogUpload",
      "type": "event"
    },
    {
      "anonymous": false,
      "inputs": [
        {
          "indexed": false,
          "name": "datahash",
          "type": "bytes32"
        },
        {
          "indexed": false,
          "name": "blockNumber",
          "type": "uint256"
        }
      ],
      "name": "ExistenceProof",
      "type": "event"
    },
    {
      "constant": true,
      "inputs": [
        {
          "name": "source",
          "type": "string"
        }
      ],
      "name": "stringToBytes32",
      "outputs": [
        {
          "name": "result",
          "type": "bytes32"
        }
      ],
      "payable": false,
      "stateMutability": "pure",
      "type": "function"
    },
    {
      "constant": false,
      "inputs": [
        {
          "name": "ipfshash",
          "type": "string"
        }
      ],
      "name": "upload",
      "outputs": [
        {
          "name": "",
          "type": "bytes32"
        }
      ],
      "payable": false,
      "stateMutability": "nonpayable",
      "type": "function"
    },
    {
      "constant": true,
      "inputs": [
        {
          "name": "datahash",
          "type": "bytes32"
        }
      ],
      "name": "proofOfExistence",
      "outputs": [
        {
          "name": "",
          "type": "uint256"
        }
      ],
      "payable": false,
      "stateMutability": "view",
      "type": "function"
    }
  ],
  "bytecode": "0x60806040526000600360006101000a81548160ff02191690831515021790555034801561002b57600080fd5b506105f68061003b6000396000f300608060405260043610610078576000357c0100000000000000000000000000000000000000000000000000000000900463ffffffff1680632c9f97bc1461007d5780633b0fa691146100dc57806342ce148814610121578063cfb51928146101a6578063e00e483c1461022b578063e98ef7eb1461029c575b600080fd5b34801561008957600080fd5b506100be600480360381019080803573ffffffffffffffffffffffffffffffffffffffff1690602001909291905050506102e1565b60405180826000191660001916815260200191505060405180910390f35b3480156100e857600080fd5b5061010b60048036038101908080356000191690602001909291905050506102f9565b6040518082815260200191505060405180910390f35b34801561012d57600080fd5b50610188600480360381019080803590602001908201803590602001908080601f0160208091040260200160405190810160405280939291908181526020018383808284378201915050505050509192919290505050610311565b60405180826000191660001916815260200191505060405180910390f35b3480156101b257600080fd5b5061020d600480360381019080803590602001908201803590602001908080601f01602080910402602001604051908101604052809392919081815260200183838082843782019150505050505091929192905050506104ac565b60405180826000191660001916815260200191505060405180910390f35b34801561023757600080fd5b5061025a60048036038101908080356000191690602001909291905050506104e7565b604051808273ffffffffffffffffffffffffffffffffffffffff1673ffffffffffffffffffffffffffffffffffffffff16815260200191505060405180910390f35b3480156102a857600080fd5b506102cb600480360381019080803560001916906020019092919050505061051a565b6040518082815260200191505060405180910390f35b60006020528060005260406000206000915090505481565b60026020528060005260406000206000915090505481565b600080600360009054906101000a900460ff1615151561033057600080fd5b610339836104ac565b9050600060016000836000191660001916815260200190815260200160002060009054906101000a900473ffffffffffffffffffffffffffffffffffffffff1673ffffffffffffffffffffffffffffffffffffffff1614151561039b57600080fd5b3360016000836000191660001916815260200190815260200160002060006101000a81548173ffffffffffffffffffffffffffffffffffffffff021916908373ffffffffffffffffffffffffffffffffffffffff1602179055504360026000836000191660001916815260200190815260200160002081905550806000803373ffffffffffffffffffffffffffffffffffffffff1673ffffffffffffffffffffffffffffffffffffffff16815260200190815260200160002081600019169055507ff50634f58de5c5a5ff2b7d382647cc615d8ebb993c975389b7f3a4159139f0e481436040518083600019166000191681526020018281526020019250505060405180910390a180915050919050565b60006060829050603281511015156104c357600080fd5b6000815114156104d957600060010291506104e1565b602083015191505b50919050565b60016020528060005260406000206000915054906101000a900473ffffffffffffffffffffffffffffffffffffffff1681565b6000807f85443de4428fc7b343317a53e9d98ace68bb049abafd934ad5cf831c654b563e83600260008660001916600019168152602001908152602001600020546040518083600019166000191681526020018281526020019250505060405180910390a1600260008460001916600019168152602001908152602001600020549050438111156105c1576001600360006101000a81548160ff0219169083151502179055505b809150509190505600a165627a7a723058206e0f855031091361c151a27f152718998ae021a317d8954dc094d03e5843ba1c0029",
  "source": "pragma solidity ^0.4.17;\n\n//this is an example of an imported ethPM package\nimport \"../installed_contracts/bytes/contracts/BytesLib.sol\";\n\n//@title PoExistence\ncontract PoExistence {\n    /* maps the user who uploaded data to proved existed to that data's hash they uploaded, only 1 address maps to 1 data hash so as to avoid overflow attacks*/\n    mapping(address => bytes32) public users_datahash;\n    \n    /* maps the hashed data to the user who uploaded that data*/\n    mapping(bytes32 => address) public datahash_to_user;\n    \n    /* maps the hash of the data to its blocknumber*/\n    mapping(bytes32 => uint) public datahash_metadata;\n    \n\n    bool private stopped = false;\n    modifier circuitBreaker{\n    \trequire(!stopped);\n    \t_;\n    }\n\n    event LogUpload(bytes32 datahash, uint blockNumber);\n    event ExistenceProof(bytes32 datahash, uint blockNumber);\n\n\n    //https://ethereum.stackexchange.com/questions/9142/how-to-convert-a-string-to-bytes32\n    //@notice convert a string to bytes32 this is not a direct translation since there can be different string encodings, it is merely to make the key for our mappings\n    //@returns return the bytes32 translation of the input string\n    function stringToBytes32(string memory source) pure returns (bytes32 result) {\n        bytes memory tempEmptyStringTest = bytes(source);\n        require(tempEmptyStringTest.length < 50);\n        if (tempEmptyStringTest.length == 0) {\n            return 0x0;\n        }\n\n        assembly {\n            result := mload(add(source, 32))\n        }\n    }\n\n    //@notice upload the ipfs hash key to the blockchain, someone who has the ipfshash will be able to use stringToBytes32 and proove that they uploaded that file\n    //@returns the bytes32 translation of the input string, which is used as the key to our blockchain storage\n    //@param ipfshash the returned hash of a file that the msg.sender uploaded\n    function upload(string ipfshash) public circuitBreaker()  returns (bytes32){\n        bytes32 datahash = stringToBytes32(ipfshash);\n\n    \t// check that the datahash was set to a user address, if it already was then reject this attempt\n        require(datahash_to_user[datahash] == 0);\n\n\n    \tdatahash_to_user[datahash] = msg.sender;\n    \tdatahash_metadata[datahash] = block.number;\n        users_datahash[msg.sender] = datahash;\n\n    \temit LogUpload(datahash, block.number);\n        return datahash;\n    }\n\n    //@notice prooves that the file corresponding to the input datahash was uploaded at the given block number\n    //@param datahash the bytes32 representation of the ipfshash returned from a given file being uploaded\n    //@return the block number that the datahash of the file was uploaded into\n    function proofOfExistence(bytes32 datahash) constant public returns(uint) {\n    \t\temit ExistenceProof(datahash, datahash_metadata[datahash]);\n            uint blockNumber = datahash_metadata[datahash];\n\n            //if blockNumber is greater than the current block.number it must be the case that our proof of past existence is compromised since no one can tell the future\n            if(blockNumber > block.number){\n                stopped = true;\n            }\n    \t\treturn blockNumber;\n    }\n}",
  "sourcePath": "/Users/arespin/ProofOfExistenceDapp/contracts/PoExistence.sol",
  "compiler": {
    "name": "solc",
    "version": "0.4.24+commit.e67f0147.Emscripten.clang"
  },
  "schemaVersion": "2.0.1",
  "updatedAt": "2018-08-27T03:22:11.831Z"
}